{
  "abi": [
    {
      "anonymous": false,
      "inputs": [
        {
          "indexed": false,
          "internalType": "address",
          "name": "_token",
          "type": "address"
        },
        {
          "indexed": false,
          "internalType": "address",
          "name": "_exchange",
          "type": "address"
        },
        {
          "indexed": false,
          "internalType": "uint256",
          "name": "_exchangeID",
          "type": "uint256"
        }
      ],
      "name": "NewExchnageCreated",
      "type": "event"
    },
    {
      "inputs": [
        {
          "internalType": "address",
          "name": "_token",
          "type": "address"
        }
      ],
      "name": "createExchange",
      "outputs": [
        {
          "internalType": "address",
          "name": "_exchange",
          "type": "address"
        }
      ],
      "stateMutability": "nonpayable",
      "type": "function"
    },
    {
      "inputs": [
        {
          "internalType": "uint256",
          "name": "_id",
          "type": "uint256"
        }
      ],
      "name": "getExchangeFromID",
      "outputs": [
        {
          "internalType": "address",
          "name": "_exchange",
          "type": "address"
        }
      ],
      "stateMutability": "view",
      "type": "function"
    },
    {
      "inputs": [
        {
          "internalType": "address",
          "name": "_token",
          "type": "address"
        }
      ],
      "name": "getExchangeFromToken",
      "outputs": [
        {
          "internalType": "address",
          "name": "_exchange",
          "type": "address"
        }
      ],
      "stateMutability": "view",
      "type": "function"
    },
    {
      "inputs": [
        {
          "internalType": "address",
          "name": "_exchange",
          "type": "address"
        }
      ],
      "name": "getTokenFromExchange",
      "outputs": [
        {
          "internalType": "address",
          "name": "_token",
          "type": "address"
        }
      ],
      "stateMutability": "view",
      "type": "function"
    },
    {
      "inputs": [
        {
          "internalType": "uint256",
          "name": "_id",
          "type": "uint256"
        }
      ],
      "name": "getTokenFromID",
      "outputs": [
        {
          "internalType": "address",
          "name": "_token",
          "type": "address"
        }
      ],
      "stateMutability": "view",
      "type": "function"
    }
  ],
  "bytecode": {
    "object": "0x608060405234801561001057600080fd5b506132ba806100206000396000f3fe608060405234801561001057600080fd5b50600436106100575760003560e01c8063095f69a41461005c5780631648f38e146100b1578063169a8053146100c4578063b04959ba146100f0578063bafeda311461011c575b600080fd5b61009561006a366004610325565b6000908152600360209081526040808320546001600160a01b03908116845291839052909120541690565b6040516001600160a01b03909116815260200160405180910390f35b6100956100bf36600461033e565b610145565b6100956100d236600461033e565b6001600160a01b039081166000908152600160205260409020541690565b6100956100fe36600461033e565b6001600160a01b039081166000908152602081905260409020541690565b61009561012a366004610325565b6000908152600360205260409020546001600160a01b031690565b60006001600160a01b0382166101945760405162461bcd60e51b815260206004820152600f60248201526e496e76616c6964204164647265737360881b60448201526064015b60405180910390fd5b6001600160a01b0382811660009081526001602052604090205416156101fc5760405162461bcd60e51b815260206004820152601760248201527f45786368616e676520616c726561647920657869737473000000000000000000604482015260640161018b565b60008260405161020b90610318565b6001600160a01b039091168152602001604051809103906000f080158015610237573d6000803e3d6000fd5b506001600160a01b038082166000818152602081815260408083208054958a166001600160a01b0319968716811790915583526001918290528220805490941690921790925560028054939450909290919061029490849061036e565b90915550506002805460009081526003602090815260409182902080546001600160a01b0319166001600160a01b03868116918217909255935483519188168252918101939093529082015290915081907f6a4a0d625fa1ff65ab95c6aeef01effdd2fdb40eba1aee16e0497ba50a25a81b9060600160405180910390a150919050565b612eef8061039683390190565b60006020828403121561033757600080fd5b5035919050565b60006020828403121561035057600080fd5b81356001600160a01b038116811461036757600080fd5b9392505050565b8082018082111561038f57634e487b7160e01b600052601160045260246000fd5b9291505056fe60806040523480156200001157600080fd5b5060405162002eef38038062002eef8339810160408190526200003491620000d5565b6040518060400160405280601081526020016f536865726c6f636b205377617020563160801b815250604051806040016040528060078152602001665641524d2d563160c81b81525081600390816200008e9190620001ac565b5060046200009d8282620001ac565b505060068054336001600160a01b031991821617909155600580549091166001600160a01b0393909316929092179091555062000278565b600060208284031215620000e857600080fd5b81516001600160a01b03811681146200010057600080fd5b9392505050565b634e487b7160e01b600052604160045260246000fd5b600181811c908216806200013257607f821691505b6020821081036200015357634e487b7160e01b600052602260045260246000fd5b50919050565b601f821115620001a757600081815260208120601f850160051c81016020861015620001825750805b601f850160051c820191505b81811015620001a3578281556001016200018e565b5050505b505050565b81516001600160401b03811115620001c857620001c862000107565b620001e081620001d984546200011d565b8462000159565b602080601f831160018114620002185760008415620001ff5750858301515b600019600386901b1c1916600185901b178555620001a3565b600085815260208120601f198616915b82811015620002495788860151825594840194600190910190840162000228565b5085821015620002685787850151600019600388901b60f8161c191681555b5050505050600190811b01905550565b612c6780620002886000396000f3fe6080604052600436106101e35760003560e01c806395d89b4111610102578063d4e4841d11610095578063f3c0efe911610064578063f3c0efe91461054a578063f552d91b1461056a578063f88bf15a1461058a578063fc0c546a146105bf57600080fd5b8063d4e4841d146104d7578063dd62ed3e146104f7578063ddf7e1a714610517578063f39b5b9b1461053757600080fd5b8063ad65d76d116100d1578063ad65d76d1461044c578063b040d5451461045f578063c45a01551461047f578063cd7724c3146104b757600080fd5b806395d89b41146103d757806395e3c50b146103ec578063a457c2d71461040c578063a9059cbb1461042c57600080fd5b8063395093511161017a57806370a082311161014957806370a08231146103575780637237e0311461038d57806389402a72146103ad57806395b68fe7146103b757600080fd5b806339509351146102f1578063422f10431461031157806359e94862146103245780636b1d4db71461034457600080fd5b806318160ddd116101b657806318160ddd1461028057806323b872dd146102955780632640f62c146102b5578063313ce567146102d557600080fd5b8063013efd8b146101e857806306fdde031461021b578063095ea7b31461023d5780630b5736381461026d575b600080fd5b3480156101f457600080fd5b506102086102033660046127c5565b6105df565b6040519081526020015b60405180910390f35b34801561022757600080fd5b506102306105f8565b60405161021291906127f1565b34801561024957600080fd5b5061025d610258366004612854565b61068a565b6040519015158152602001610212565b61020861027b366004612880565b6106a4565b34801561028c57600080fd5b50600254610208565b3480156102a157600080fd5b5061025d6102b03660046128b9565b6106b3565b3480156102c157600080fd5b506102086102d03660046128fa565b6106d7565b3480156102e157600080fd5b5060405160128152602001610212565b3480156102fd57600080fd5b5061025d61030c366004612854565b61075f565b61020861031f3660046127c5565b610781565b34801561033057600080fd5b5061020861033f3660046128fa565b610bf7565b610208610352366004612913565b610c7f565b34801561036357600080fd5b50610208610372366004612935565b6001600160a01b031660009081526020819052604090205490565b34801561039957600080fd5b506102086103a8366004612952565b610c8e565b6103b5610ca6565b005b3480156103c357600080fd5b506102086103d23660046128fa565b610cb7565b3480156103e357600080fd5b50610230610d49565b3480156103f857600080fd5b506102086104073660046127c5565b610d58565b34801561041857600080fd5b5061025d610427366004612854565b610d67565b34801561043857600080fd5b5061025d610447366004612854565b610de2565b61020861045a366004612880565b610df0565b34801561046b57600080fd5b5061020861047a366004612993565b610dff565b34801561048b57600080fd5b5060065461049f906001600160a01b031681565b6040516001600160a01b039091168152602001610212565b3480156104c357600080fd5b506102086104d23660046128fa565b610e8f565b3480156104e357600080fd5b506102086104f2366004612952565b610f17565b34801561050357600080fd5b506102086105123660046129e0565b610f26565b34801561052357600080fd5b50610208610532366004612993565b610f51565b610208610545366004612913565b610fd7565b34801561055657600080fd5b50610208610565366004612a19565b610fe6565b34801561057657600080fd5b50610208610585366004612a19565b611035565b34801561059657600080fd5b506105aa6105a5366004612a77565b611079565b60408051928352602083019190915201610212565b3480156105cb57600080fd5b5060055461049f906001600160a01b031681565b60006105ee84848433336112e3565b90505b9392505050565b60606003805461060790612aa9565b80601f016020809104026020016040519081016040528092919081815260200182805461063390612aa9565b80156106805780601f1061065557610100808354040283529160200191610680565b820191906000526020600020905b81548152906001019060200180831161066357829003601f168201915b5050505050905090565b6000336106988185856115a5565b60019150505b92915050565b60006105ee84348533866116ca565b6000336106c1858285611900565b6106cc85858561197a565b506001949350505050565b60008082116106e557600080fd5b6005546040516370a0823160e01b81523060048201526000916001600160a01b0316906370a0823190602401602060405180830381865afa15801561072e573d6000803e3d6000fd5b505050506040513d601f19601f820116820180604052508101906107529190612ae3565b90506105f1838247611b1e565b6000336106988185856107728383610f26565b61077c9190612b12565b6115a5565b600042821180156107925750600083115b801561079e5750600034115b6107ef5760405162461bcd60e51b815260206004820152601c60248201527f646964206e6f74206d65742074686520726571756972656d656e74730000000060448201526064015b60405180910390fd5b60006107fa60025490565b1115610a5157600084116108505760405162461bcd60e51b815260206004820152601960248201527f6d696e696d756d206c6971756964697479206973207a65726f0000000000000060448201526064016107e6565b600061085c3447612b25565b6005546040516370a0823160e01b81523060048201529192506000916001600160a01b03909116906370a0823190602401602060405180830381865afa1580156108aa573d6000803e3d6000fd5b505050506040513d601f19601f820116820180604052508101906108ce9190612ae3565b90506000826108dd8334612b38565b6108e79190612b4f565b6108f2906001612b12565b90506000836109018434612b38565b61090b9190612b4f565b905081871015801561091d5750878110155b6109695760405162461bcd60e51b815260206004820152601e60248201527f6469646e27742067657420746865206465736972656420726573756c7473000060448201526064016107e6565b6109733382611b81565b6005546040516323b872dd60e01b81526001600160a01b03909116906323b872dd906109a790339030908790600401612b71565b6020604051808303816000875af11580156109c6573d6000803e3d6000fd5b505050506040513d601f19601f820116820180604052508101906109ea9190612b95565b610a065760405162461bcd60e51b81526004016107e690612bb7565b604080513381523460208201529081018290527fac1d76749e5447b7b16f5ab61447e1bd502f3bb4807af3b28e620d1700a6ee459060600160405180910390a193506105f192505050565b6006546001600160a01b031615801590610a7557506005546001600160a01b031615155b8015610a855750633b9aca003410155b610a8e57600080fd5b60065460055460405163169a805360e01b81526001600160a01b0391821660048201523092919091169063169a805390602401602060405180830381865afa158015610ade573d6000803e3d6000fd5b505050506040513d601f19601f82011682018060405250810190610b029190612c14565b6001600160a01b031614610b1557600080fd5b610b1f3347611b81565b6005546040516323b872dd60e01b81526001600160a01b03909116906323b872dd90610b5390339030908890600401612b71565b6020604051808303816000875af1158015610b72573d6000803e3d6000fd5b505050506040513d601f19601f82011682018060405250810190610b969190612b95565b610bb25760405162461bcd60e51b81526004016107e690612bb7565b60408051338152346020820152478183015290517fac1d76749e5447b7b16f5ab61447e1bd502f3bb4807af3b28e620d1700a6ee459181900360600190a150476105f1565b6000808211610c0557600080fd5b6005546040516370a0823160e01b81523060048201526000916001600160a01b0316906370a0823190602401602060405180830381865afa158015610c4e573d6000803e3d6000fd5b505050506040513d601f19601f82011682018060405250810190610c729190612ae3565b90506105f1834783611b1e565b60006105f183348433336116ca565b6000610c9d8585853386611c40565b95945050505050565b610cb4346001423333611e5b565b50565b6000808211610cc557600080fd5b6005546040516370a0823160e01b81523060048201526000916001600160a01b0316906370a0823190602401602060405180830381865afa158015610d0e573d6000803e3d6000fd5b505050506040513d601f19601f82011682018060405250810190610d329190612ae3565b90506000610d41848347612097565b949350505050565b60606004805461060790612aa9565b60006105ee8484843333611c40565b60003381610d758286610f26565b905083811015610dd55760405162461bcd60e51b815260206004820152602560248201527f45524332303a2064656372656173656420616c6c6f77616e63652062656c6f77604482015264207a65726f60d81b60648201526084016107e6565b6106cc82868684036115a5565b60003361069881858561197a565b60006105ee3485853386611e5b565b60065460405163169a805360e01b81526001600160a01b038381166004830152600092610e859289928992899289923392839291169063169a8053906024015b602060405180830381865afa158015610e5c573d6000803e3d6000fd5b505050506040513d601f19601f82011682018060405250810190610e809190612c14565b6120ec565b9695505050505050565b6000808211610e9d57600080fd5b6005546040516370a0823160e01b81523060048201526000916001600160a01b0316906370a0823190602401602060405180830381865afa158015610ee6573d6000803e3d6000fd5b505050506040513d601f19601f82011682018060405250810190610f0a9190612ae3565b90506105f1834783612097565b6000610c9d85858533866112e3565b6001600160a01b03918216600090815260016020908152604080832093909416825291909152205490565b60065460405163169a805360e01b81526001600160a01b038381166004830152600092610e859289928992899289923392839291169063169a8053906024015b602060405180830381865afa158015610fae573d6000803e3d6000fd5b505050506040513d601f19601f82011682018060405250810190610fd29190612c14565b6123fe565b60006105f13484843333611e5b565b60065460405163169a805360e01b81526001600160a01b03848116600483015260009261102a928a928a928a928a9233928a9291169063169a805390602401610e3f565b979650505050505050565b60065460405163169a805360e01b81526001600160a01b03848116600483015260009261102a928a928a928a928a9233928a9291169063169a805390602401610f91565b60008060008611801561108b57504283115b80156110975750600085115b80156110a35750600084115b6110ac57600080fd5b6005546040516370a0823160e01b81523060048201526000916001600160a01b0316906370a0823190602401602060405180830381865afa1580156110f5573d6000803e3d6000fd5b505050506040513d601f19601f820116820180604052508101906111199190612ae3565b90506000811161112857600080fd5b6002546111354789612b38565b61113f9190612b4f565b925061114a60025490565b6111548289612b38565b61115e9190612b4f565b9150858311801561116e57508482115b61117757600080fd5b611181338861269b565b604051600090339085908381818185875af1925050503d80600081146111c3576040519150601f19603f3d011682016040523d82523d6000602084013e6111c8565b606091505b50509050806112195760405162461bcd60e51b815260206004820152601a60248201527f4661696c656420746f2073656e6420656874657273206261636b00000000000060448201526064016107e6565b60055460405163a9059cbb60e01b8152336004820152602481018590526001600160a01b039091169063a9059cbb906044016020604051808303816000875af115801561126a573d6000803e3d6000fd5b505050506040513d601f19601f8201168201806040525081019061128e9190612b95565b61129757600080fd5b60408051898152602081018690529081018490527f0bb89aa54ed6940a7e7167bd262b2400d63945045ceff1a52a05f2601ed215f19060600160405180910390a1505094509492505050565b60004284101580156112f55750600085115b80156113015750600086115b61130a57600080fd5b6005546040516370a0823160e01b81523060048201526000916001600160a01b0316906370a0823190602401602060405180830381865afa158015611353573d6000803e3d6000fd5b505050506040513d601f19601f820116820180604052508101906113779190612ae3565b90506000611386888347611b1e565b9050808710156113e85760405162461bcd60e51b815260206004820152602760248201527f736f6c6420746f6b656e73206172652067726561746572207468616e206d617860448201526620746f6b656e7360c81b60648201526084016107e6565b6005546040516323b872dd60e01b81526001600160a01b03909116906323b872dd9061141c90889030908690600401612b71565b6020604051808303816000875af115801561143b573d6000803e3d6000fd5b505050506040513d601f19601f8201168201806040525081019061145f9190612b95565b6114ab5760405162461bcd60e51b815260206004820152601960248201527f6661696c656420746f207472616e7366657220746f6b656e730000000000000060448201526064016107e6565b6000846001600160a01b03168960405160006040518083038185875af1925050503d80600081146114f8576040519150601f19603f3d011682016040523d82523d6000602084013e6114fd565b606091505b50509050806115435760405162461bcd60e51b81526020600482015260126024820152710ccc2d2d8cac840e8de40e6cadcc840cae8d60731b60448201526064016107e6565b60408051838152602081018b90526001600160a01b038089169282019290925290861660608201527fbe9ea755f86b0134c169047129dc76baa88a8c0dca4b3b98df26720207d2a417906080015b60405180910390a150979650505050505050565b6001600160a01b0383166116075760405162461bcd60e51b8152602060048201526024808201527f45524332303a20617070726f76652066726f6d20746865207a65726f206164646044820152637265737360e01b60648201526084016107e6565b6001600160a01b0382166116685760405162461bcd60e51b815260206004820152602260248201527f45524332303a20617070726f766520746f20746865207a65726f206164647265604482015261737360f01b60648201526084016107e6565b6001600160a01b0383811660008181526001602090815260408083209487168084529482529182902085905590518481527f8c5be1e5ebec7d5bd14f71427d1e84f3dd0314c0f7b2291e5b200ac8c7c3b92591015b60405180910390a3505050565b60004284101580156116dc5750600086115b80156116e85750600085115b6116f157600080fd5b6005546040516370a0823160e01b81523060048201526000916001600160a01b0316906370a0823190602401602060405180830381865afa15801561173a573d6000803e3d6000fd5b505050506040513d601f19601f8201168201806040525081019061175e9190612ae3565b90506000611776886117708947612b25565b84611b1e565b905060006117848289612b25565b90508015611831576000866001600160a01b03168260405160006040518083038185875af1925050503d80600081146117d9576040519150601f19603f3d011682016040523d82523d6000602084013e6117de565b606091505b505090508061182f5760405162461bcd60e51b815260206004820181905260248201527f6661696c656420746f2073656e6420726566756e642065746820616d6f756e7460448201526064016107e6565b505b60055460405163a9059cbb60e01b81526001600160a01b038781166004830152602482018c90529091169063a9059cbb906044016020604051808303816000875af1158015611884573d6000803e3d6000fd5b505050506040513d601f19601f820116820180604052508101906118a89190612b95565b6118b157600080fd5b604080516001600160a01b03808916825287166020820152908101839052606081018a90527fbe52c1773bb2528744725b29470d0cb959c94e22fc4817ad800fd3d83816dbad90608001611591565b600061190c8484610f26565b9050600019811461197457818110156119675760405162461bcd60e51b815260206004820152601d60248201527f45524332303a20696e73756666696369656e7420616c6c6f77616e636500000060448201526064016107e6565b61197484848484036115a5565b50505050565b6001600160a01b0383166119de5760405162461bcd60e51b815260206004820152602560248201527f45524332303a207472616e736665722066726f6d20746865207a65726f206164604482015264647265737360d81b60648201526084016107e6565b6001600160a01b038216611a405760405162461bcd60e51b815260206004820152602360248201527f45524332303a207472616e7366657220746f20746865207a65726f206164647260448201526265737360e81b60648201526084016107e6565b6001600160a01b03831660009081526020819052604090205481811015611ab85760405162461bcd60e51b815260206004820152602660248201527f45524332303a207472616e7366657220616d6f756e7420657863656564732062604482015265616c616e636560d01b60648201526084016107e6565b6001600160a01b03848116600081815260208181526040808320878703905593871680835291849020805487019055925185815290927fddf252ad1be2c89b69c2b068fc378daa952ba7f163c4a11628f55a4df523b3ef910160405180910390a3611974565b60008083118015611b2f5750600082115b611b3857600080fd5b6000611b448585612b38565b611b50906103e8612b38565b90506000611b5e8685612b25565b611b6a906103e5612b38565b9050611b768183612b4f565b610e85906001612b12565b6001600160a01b038216611bd75760405162461bcd60e51b815260206004820152601f60248201527f45524332303a206d696e7420746f20746865207a65726f20616464726573730060448201526064016107e6565b8060026000828254611be99190612b12565b90915550506001600160a01b038216600081815260208181526040808320805486019055518481527fddf252ad1be2c89b69c2b068fc378daa952ba7f163c4a11628f55a4df523b3ef910160405180910390a35050565b60008085118015611c515750428410155b8015611c5d5750600086115b611c6657600080fd5b6005546040516370a0823160e01b81523060048201526000916001600160a01b0316906370a0823190602401602060405180830381865afa158015611caf573d6000803e3d6000fd5b505050506040513d601f19601f82011682018060405250810190611cd39190612ae3565b90506000611ce2888347612097565b905086811015611cf157600080fd5b6005546040516323b872dd60e01b81526001600160a01b03909116906323b872dd90611d2590889030908d90600401612b71565b6020604051808303816000875af1158015611d44573d6000803e3d6000fd5b505050506040513d601f19601f82011682018060405250810190611d689190612b95565b611d7157600080fd5b6000846001600160a01b03168260405160006040518083038185875af1925050503d8060008114611dbe576040519150601f19603f3d011682016040523d82523d6000602084013e611dc3565b606091505b5050905080611e095760405162461bcd60e51b81526020600482015260126024820152710ccc2d2d8cac840e8de40e6cadcc840cae8d60731b60448201526064016107e6565b604080518a8152602081018490526001600160a01b038089169282019290925290861660608201527fbe9ea755f86b0134c169047129dc76baa88a8c0dca4b3b98df26720207d2a41790608001611591565b6000428410158015611e6d5750600086115b8015611e795750600085115b611e8257600080fd5b6005546040516370a0823160e01b81523060048201526000916001600160a01b0316906370a0823190602401602060405180830381865afa158015611ecb573d6000803e3d6000fd5b505050506040513d601f19601f82011682018060405250810190611eef9190612ae3565b90506000611f0788611f013447612b25565b84612097565b905086811015611f6c5760405162461bcd60e51b815260206004820152602a60248201527f626f7567687420746f6b656e73206172652062656c6f7720746865206d696e696044820152696d756d20746f6b656e7360b01b60648201526084016107e6565b60055460405163a9059cbb60e01b81526001600160a01b038681166004830152602482018490529091169063a9059cbb906044016020604051808303816000875af1158015611fbf573d6000803e3d6000fd5b505050506040513d601f19601f82011682018060405250810190611fe39190612b95565b61203a5760405162461bcd60e51b815260206004820152602260248201527f66616c69656420746f2073656e6420746f6b656e7320746f20726563697069656044820152611b9d60f21b60648201526084016107e6565b604080516001600160a01b03808816825286166020820152908101899052606081018290527fbe52c1773bb2528744725b29470d0cb959c94e22fc4817ad800fd3d83816dbad9060800160405180910390a1979650505050505050565b600080831180156120a85750600082115b6120b157600080fd5b60006120bf856103e5612b38565b9050806120ce856103e8612b38565b6120d88584612b38565b6120e29190612b4f565b610c9d9190612b12565b60004285101580156120fe5750600088115b801561210a5750600086115b801561211f57506001600160a01b0382163014155b801561213357506001600160a01b03821615155b61213c57600080fd5b604051632cf4a43160e11b8152600481018990526000906001600160a01b038416906359e9486290602401602060405180830381865afa158015612184573d6000803e3d6000fd5b505050506040513d601f19601f820116820180604052508101906121a89190612ae3565b6005546040516370a0823160e01b81523060048201529192506000916001600160a01b03909116906370a0823190602401602060405180830381865afa1580156121f6573d6000803e3d6000fd5b505050506040513d601f19601f8201168201806040525081019061221a9190612ae3565b90506000612229838347611b1e565b9050808a1015801561223b5750828910155b61224457600080fd5b6005546040516323b872dd60e01b81526001600160a01b03909116906323b872dd90612278908a9030908690600401612b71565b6020604051808303816000875af1158015612297573d6000803e3d6000fd5b505050506040513d601f19601f820116820180604052508101906122bb9190612b95565b6122c457600080fd5b60405163016ae6c760e31b8152600481018c9052602481018990526001600160a01b038781166044830152861690630b57363890859060640160206040518083038185885af115801561231b573d6000803e3d6000fd5b50505050506040513d601f19601f820116820180604052508101906123409190612ae3565b507f871411fc917b52ee1163d559d6226b30d24aafd2f8feba07619ed1f86caa4ed08787876001600160a01b031663fc0c546a6040518163ffffffff1660e01b8152600401602060405180830381865afa1580156123a2573d6000803e3d6000fd5b505050506040513d601f19601f820116820180604052508101906123c69190612c14565b604080516001600160a01b039485168152928416602084015292168183015290519081900360600190a19a9950505050505050505050565b60004285101580156124105750600088115b801561241c5750600087115b80156124285750600086115b801561243c57506001600160a01b03821615155b801561245157506001600160a01b0382163014155b61245a57600080fd5b6005546040516370a0823160e01b81523060048201526000916001600160a01b0316906370a0823190602401602060405180830381865afa1580156124a3573d6000803e3d6000fd5b505050506040513d601f19601f820116820180604052508101906124c79190612ae3565b905060006124d68a8347612097565b9050878110156125385760405162461bcd60e51b815260206004820152602760248201527f6d6f726520657468207265717569726520746f207377617020746f6b656e207460448201526637903a37b5b2b760c91b60648201526084016107e6565b6005546040516323b872dd60e01b81526001600160a01b03909116906323b872dd9061256c90899030908f90600401612b71565b6020604051808303816000875af115801561258b573d6000803e3d6000fd5b505050506040513d601f19601f820116820180604052508101906125af9190612b95565b6125b857600080fd5b60405163ad65d76d60e01b8152600481018a9052602481018890526001600160a01b0386811660448301526000919086169063ad65d76d90849060640160206040518083038185885af1158015612613573d6000803e3d6000fd5b50505050506040513d601f19601f820116820180604052508101906126389190612ae3565b90507f871411fc917b52ee1163d559d6226b30d24aafd2f8feba07619ed1f86caa4ed08787876001600160a01b031663fc0c546a6040518163ffffffff1660e01b8152600401602060405180830381865afa1580156123a2573d6000803e3d6000fd5b6001600160a01b0382166126fb5760405162461bcd60e51b815260206004820152602160248201527f45524332303a206275726e2066726f6d20746865207a65726f206164647265736044820152607360f81b60648201526084016107e6565b6001600160a01b0382166000908152602081905260409020548181101561276f5760405162461bcd60e51b815260206004820152602260248201527f45524332303a206275726e20616d6f756e7420657863656564732062616c616e604482015261636560f01b60648201526084016107e6565b6001600160a01b0383166000818152602081815260408083208686039055600280548790039055518581529192917fddf252ad1be2c89b69c2b068fc378daa952ba7f163c4a11628f55a4df523b3ef91016116bd565b6000806000606084860312156127da57600080fd5b505081359360208301359350604090920135919050565b600060208083528351808285015260005b8181101561281e57858101830151858201604001528201612802565b506000604082860101526040601f19601f8301168501019250505092915050565b6001600160a01b0381168114610cb457600080fd5b6000806040838503121561286757600080fd5b82356128728161283f565b946020939093013593505050565b60008060006060848603121561289557600080fd5b833592506020840135915060408401356128ae8161283f565b809150509250925092565b6000806000606084860312156128ce57600080fd5b83356128d98161283f565b925060208401356128e98161283f565b929592945050506040919091013590565b60006020828403121561290c57600080fd5b5035919050565b6000806040838503121561292657600080fd5b50508035926020909101359150565b60006020828403121561294757600080fd5b81356105f18161283f565b6000806000806080858703121561296857600080fd5b84359350602085013592506040850135915060608501356129888161283f565b939692955090935050565b600080600080600060a086880312156129ab57600080fd5b8535945060208601359350604086013592506060860135915060808601356129d28161283f565b809150509295509295909350565b600080604083850312156129f357600080fd5b82356129fe8161283f565b91506020830135612a0e8161283f565b809150509250929050565b60008060008060008060c08789031215612a3257600080fd5b863595506020870135945060408701359350606087013592506080870135612a598161283f565b915060a0870135612a698161283f565b809150509295509295509295565b60008060008060808587031215612a8d57600080fd5b5050823594602084013594506040840135936060013592509050565b600181811c90821680612abd57607f821691505b602082108103612add57634e487b7160e01b600052602260045260246000fd5b50919050565b600060208284031215612af557600080fd5b5051919050565b634e487b7160e01b600052601160045260246000fd5b8082018082111561069e5761069e612afc565b8181038181111561069e5761069e612afc565b808202811582820484141761069e5761069e612afc565b600082612b6c57634e487b7160e01b600052601260045260246000fd5b500490565b6001600160a01b039384168152919092166020820152604081019190915260600190565b600060208284031215612ba757600080fd5b815180151581146105f157600080fd5b60208082526039908201527f4661696c656420746f207472616e736665722065746865722066726f6d20736560408201527f6e64657220746f2065786368616e676520636f6e747261637400000000000000606082015260800190565b600060208284031215612c2657600080fd5b81516105f18161283f56fea2646970667358221220e1b067fbedad02bea5dc85605421e60d0a83807961f9948a1a2852b4e3cf7a6964736f6c63430008140033a2646970667358221220a011ae611af920e83371ff2f96c5c9fa1affe105284e435139b8523e428b849564736f6c63430008140033",
    "linkReferences": {}
  },
  "methodIdentifiers": {
    "createExchange(address)": "1648f38e",
    "getExchangeFromID(uint256)": "bafeda31",
    "getExchangeFromToken(address)": "169a8053",
    "getTokenFromExchange(address)": "b04959ba",
    "getTokenFromID(uint256)": "095f69a4"
  },
  "id": 5
}